{
  "contractName": "GoodwillChainMain",
  "abi": [
    {
      "inputs": [],
      "stateMutability": "nonpayable",
      "type": "constructor"
    },
    {
      "anonymous": false,
      "inputs": [
        {
          "indexed": true,
          "internalType": "address",
          "name": "owner",
          "type": "address"
        },
        {
          "indexed": true,
          "internalType": "address",
          "name": "approved",
          "type": "address"
        },
        {
          "indexed": true,
          "internalType": "uint256",
          "name": "tokenId",
          "type": "uint256"
        }
      ],
      "name": "Approval",
      "type": "event"
    },
    {
      "anonymous": false,
      "inputs": [
        {
          "indexed": true,
          "internalType": "address",
          "name": "owner",
          "type": "address"
        },
        {
          "indexed": true,
          "internalType": "address",
          "name": "operator",
          "type": "address"
        },
        {
          "indexed": false,
          "internalType": "bool",
          "name": "approved",
          "type": "bool"
        }
      ],
      "name": "ApprovalForAll",
      "type": "event"
    },
    {
      "anonymous": false,
      "inputs": [
        {
          "indexed": true,
          "internalType": "address",
          "name": "previousOwner",
          "type": "address"
        },
        {
          "indexed": true,
          "internalType": "address",
          "name": "newOwner",
          "type": "address"
        }
      ],
      "name": "OwnershipTransferred",
      "type": "event"
    },
    {
      "anonymous": false,
      "inputs": [
        {
          "indexed": true,
          "internalType": "address",
          "name": "from",
          "type": "address"
        },
        {
          "indexed": true,
          "internalType": "address",
          "name": "to",
          "type": "address"
        },
        {
          "indexed": true,
          "internalType": "uint256",
          "name": "tokenId",
          "type": "uint256"
        }
      ],
      "name": "Transfer",
      "type": "event"
    },
    {
      "anonymous": false,
      "inputs": [
        {
          "indexed": false,
          "internalType": "uint256",
          "name": "id",
          "type": "uint256"
        },
        {
          "indexed": false,
          "internalType": "address",
          "name": "buyer",
          "type": "address"
        }
      ],
      "name": "boughtNFT",
      "type": "event"
    },
    {
      "anonymous": false,
      "inputs": [
        {
          "indexed": false,
          "internalType": "uint256",
          "name": "id",
          "type": "uint256"
        },
        {
          "indexed": false,
          "internalType": "string",
          "name": "name",
          "type": "string"
        },
        {
          "indexed": false,
          "internalType": "address",
          "name": "owner",
          "type": "address"
        }
      ],
      "name": "createdNFT",
      "type": "event"
    },
    {
      "anonymous": false,
      "inputs": [
        {
          "indexed": false,
          "internalType": "uint256",
          "name": "id",
          "type": "uint256"
        },
        {
          "indexed": false,
          "internalType": "uint256",
          "name": "nftID",
          "type": "uint256"
        },
        {
          "indexed": false,
          "internalType": "uint256",
          "name": "amount",
          "type": "uint256"
        },
        {
          "indexed": false,
          "internalType": "bool",
          "name": "approved",
          "type": "bool"
        }
      ],
      "name": "offerApproved",
      "type": "event"
    },
    {
      "anonymous": false,
      "inputs": [
        {
          "indexed": false,
          "internalType": "uint256",
          "name": "id",
          "type": "uint256"
        },
        {
          "indexed": false,
          "internalType": "uint256",
          "name": "newPrice",
          "type": "uint256"
        },
        {
          "indexed": false,
          "internalType": "bool",
          "name": "listed",
          "type": "bool"
        }
      ],
      "name": "setNFTPrice",
      "type": "event"
    },
    {
      "inputs": [
        {
          "internalType": "address",
          "name": "to",
          "type": "address"
        },
        {
          "internalType": "uint256",
          "name": "tokenId",
          "type": "uint256"
        }
      ],
      "name": "approve",
      "outputs": [],
      "stateMutability": "nonpayable",
      "type": "function"
    },
    {
      "inputs": [
        {
          "internalType": "address",
          "name": "owner",
          "type": "address"
        }
      ],
      "name": "balanceOf",
      "outputs": [
        {
          "internalType": "uint256",
          "name": "",
          "type": "uint256"
        }
      ],
      "stateMutability": "view",
      "type": "function"
    },
    {
      "inputs": [],
      "name": "funds",
      "outputs": [
        {
          "internalType": "uint256",
          "name": "",
          "type": "uint256"
        }
      ],
      "stateMutability": "view",
      "type": "function"
    },
    {
      "inputs": [
        {
          "internalType": "uint256",
          "name": "tokenId",
          "type": "uint256"
        }
      ],
      "name": "getApproved",
      "outputs": [
        {
          "internalType": "address",
          "name": "",
          "type": "address"
        }
      ],
      "stateMutability": "view",
      "type": "function"
    },
    {
      "inputs": [
        {
          "internalType": "address",
          "name": "owner",
          "type": "address"
        },
        {
          "internalType": "address",
          "name": "operator",
          "type": "address"
        }
      ],
      "name": "isApprovedForAll",
      "outputs": [
        {
          "internalType": "bool",
          "name": "",
          "type": "bool"
        }
      ],
      "stateMutability": "view",
      "type": "function"
    },
    {
      "inputs": [],
      "name": "name",
      "outputs": [
        {
          "internalType": "string",
          "name": "",
          "type": "string"
        }
      ],
      "stateMutability": "view",
      "type": "function"
    },
    {
      "inputs": [
        {
          "internalType": "uint256",
          "name": "",
          "type": "uint256"
        }
      ],
      "name": "nfts",
      "outputs": [
        {
          "internalType": "uint256",
          "name": "id",
          "type": "uint256"
        },
        {
          "internalType": "uint256",
          "name": "price",
          "type": "uint256"
        },
        {
          "internalType": "bool",
          "name": "isListed",
          "type": "bool"
        },
        {
          "internalType": "string",
          "name": "name",
          "type": "string"
        },
        {
          "internalType": "string",
          "name": "filecid",
          "type": "string"
        },
        {
          "internalType": "string",
          "name": "aName",
          "type": "string"
        },
        {
          "internalType": "address",
          "name": "artist",
          "type": "address"
        },
        {
          "internalType": "address",
          "name": "owner",
          "type": "address"
        }
      ],
      "stateMutability": "view",
      "type": "function"
    },
    {
      "inputs": [],
      "name": "org_address",
      "outputs": [
        {
          "internalType": "address payable",
          "name": "",
          "type": "address"
        }
      ],
      "stateMutability": "view",
      "type": "function"
    },
    {
      "inputs": [],
      "name": "owner",
      "outputs": [
        {
          "internalType": "address",
          "name": "",
          "type": "address"
        }
      ],
      "stateMutability": "view",
      "type": "function"
    },
    {
      "inputs": [
        {
          "internalType": "uint256",
          "name": "tokenId",
          "type": "uint256"
        }
      ],
      "name": "ownerOf",
      "outputs": [
        {
          "internalType": "address",
          "name": "",
          "type": "address"
        }
      ],
      "stateMutability": "view",
      "type": "function"
    },
    {
      "inputs": [],
      "name": "renounceOwnership",
      "outputs": [],
      "stateMutability": "nonpayable",
      "type": "function"
    },
    {
      "inputs": [
        {
          "internalType": "address",
          "name": "from",
          "type": "address"
        },
        {
          "internalType": "address",
          "name": "to",
          "type": "address"
        },
        {
          "internalType": "uint256",
          "name": "tokenId",
          "type": "uint256"
        }
      ],
      "name": "safeTransferFrom",
      "outputs": [],
      "stateMutability": "nonpayable",
      "type": "function"
    },
    {
      "inputs": [
        {
          "internalType": "address",
          "name": "from",
          "type": "address"
        },
        {
          "internalType": "address",
          "name": "to",
          "type": "address"
        },
        {
          "internalType": "uint256",
          "name": "tokenId",
          "type": "uint256"
        },
        {
          "internalType": "bytes",
          "name": "_data",
          "type": "bytes"
        }
      ],
      "name": "safeTransferFrom",
      "outputs": [],
      "stateMutability": "nonpayable",
      "type": "function"
    },
    {
      "inputs": [
        {
          "internalType": "address",
          "name": "operator",
          "type": "address"
        },
        {
          "internalType": "bool",
          "name": "approved",
          "type": "bool"
        }
      ],
      "name": "setApprovalForAll",
      "outputs": [],
      "stateMutability": "nonpayable",
      "type": "function"
    },
    {
      "inputs": [
        {
          "internalType": "bytes4",
          "name": "interfaceId",
          "type": "bytes4"
        }
      ],
      "name": "supportsInterface",
      "outputs": [
        {
          "internalType": "bool",
          "name": "",
          "type": "bool"
        }
      ],
      "stateMutability": "view",
      "type": "function"
    },
    {
      "inputs": [],
      "name": "symbol",
      "outputs": [
        {
          "internalType": "string",
          "name": "",
          "type": "string"
        }
      ],
      "stateMutability": "view",
      "type": "function"
    },
    {
      "inputs": [],
      "name": "tCount",
      "outputs": [
        {
          "internalType": "uint256",
          "name": "",
          "type": "uint256"
        }
      ],
      "stateMutability": "view",
      "type": "function"
    },
    {
      "inputs": [
        {
          "internalType": "address",
          "name": "from",
          "type": "address"
        },
        {
          "internalType": "address",
          "name": "to",
          "type": "address"
        },
        {
          "internalType": "uint256",
          "name": "tokenId",
          "type": "uint256"
        }
      ],
      "name": "transferFrom",
      "outputs": [],
      "stateMutability": "nonpayable",
      "type": "function"
    },
    {
      "inputs": [
        {
          "internalType": "address",
          "name": "newOwner",
          "type": "address"
        }
      ],
      "name": "transferOwnership",
      "outputs": [],
      "stateMutability": "nonpayable",
      "type": "function"
    },
    {
      "inputs": [
        {
          "internalType": "uint256",
          "name": "tokenId",
          "type": "uint256"
        }
      ],
      "name": "tokenURI",
      "outputs": [
        {
          "internalType": "string",
          "name": "",
          "type": "string"
        }
      ],
      "stateMutability": "view",
      "type": "function"
    },
    {
      "inputs": [
        {
          "internalType": "address",
          "name": "_gctAddress",
          "type": "address"
        }
      ],
      "name": "setGCTAddress",
      "outputs": [],
      "stateMutability": "nonpayable",
      "type": "function"
    },
    {
      "inputs": [
        {
          "internalType": "address",
          "name": "_org_address",
          "type": "address"
        }
      ],
      "name": "setOrgAddress",
      "outputs": [],
      "stateMutability": "nonpayable",
      "type": "function"
    },
    {
      "inputs": [
        {
          "internalType": "string",
          "name": "_name",
          "type": "string"
        }
      ],
      "name": "registerArtist",
      "outputs": [],
      "stateMutability": "nonpayable",
      "type": "function"
    },
    {
      "inputs": [
        {
          "internalType": "string",
          "name": "_name",
          "type": "string"
        },
        {
          "internalType": "string",
          "name": "_filecid",
          "type": "string"
        },
        {
          "internalType": "uint256",
          "name": "_price",
          "type": "uint256"
        }
      ],
      "name": "createNFT",
      "outputs": [],
      "stateMutability": "nonpayable",
      "type": "function"
    },
    {
      "inputs": [
        {
          "internalType": "uint256",
          "name": "_id",
          "type": "uint256"
        }
      ],
      "name": "buyNFT",
      "outputs": [],
      "stateMutability": "payable",
      "type": "function"
    }
  ],
  "bytecode": "0x60806040523480156200001157600080fd5b506040518060400160405280601181526020017f476f6f6477696c6c436861696e204e46540000000000000000000000000000008152506040518060400160405280600381526020017f4757430000000000000000000000000000000000000000000000000000000000815250816000908051906020019062000096929190620001a6565b508060019080519060200190620000af929190620001a6565b505050620000d2620000c6620000d860201b60201c565b620000e060201b60201c565b620002bb565b600033905090565b6000600760009054906101000a900473ffffffffffffffffffffffffffffffffffffffff16905081600760006101000a81548173ffffffffffffffffffffffffffffffffffffffff021916908373ffffffffffffffffffffffffffffffffffffffff1602179055508173ffffffffffffffffffffffffffffffffffffffff168173ffffffffffffffffffffffffffffffffffffffff167f8be0079c531659141344cd1fd0a4f28419497f9722a3daafe3b4186f6b6457e060405160405180910390a35050565b828054620001b49062000256565b90600052602060002090601f016020900481019282620001d8576000855562000224565b82601f10620001f357805160ff191683800117855562000224565b8280016001018555821562000224579182015b828111156200022357825182559160200191906001019062000206565b5b50905062000233919062000237565b5090565b5b808211156200025257600081600090555060010162000238565b5090565b600060028204905060018216806200026f57607f821691505b602082108114156200028657620002856200028c565b5b50919050565b7f4e487b7100000000000000000000000000000000000000000000000000000000600052602260045260246000fd5b61403a80620002cb6000396000f3fe6080604052600436106101665760003560e01c8063715018a6116100d1578063b21d01901161008a578063c87b56dd11610064578063c87b56dd1461051e578063c89f2ce41461055b578063e985e9c514610586578063f2fde38b146105c357610166565b8063b21d0190146104a1578063b88d4fde146104ca578063b98a2c69146104f357610166565b8063715018a6146103b95780638da5cb5b146103d05780639355d419146103fb57806395d89b41146104245780639add4b791461044f578063a22cb4651461047857610166565b80633241d34a116101235780633241d34a146102a657806342842e0e146102cf57806351ed8288146102f857806353f9a873146103145780636352211e1461033f57806370a082311461037c57610166565b806301ffc9a71461016b57806306fdde03146101a8578063081812fc146101d3578063095ea7b31461021057806323b872dd14610239578063265aa62114610262575b600080fd5b34801561017757600080fd5b50610192600480360381019061018d9190612c3c565b6105ec565b60405161019f9190613270565b60405180910390f35b3480156101b457600080fd5b506101bd6106ce565b6040516101ca919061328b565b60405180910390f35b3480156101df57600080fd5b506101fa60048036038101906101f59190612d4e565b610760565b60405161020791906131c5565b60405180910390f35b34801561021c57600080fd5b5061023760048036038101906102329190612c00565b6107e5565b005b34801561024557600080fd5b50610260600480360381019061025b9190612afa565b6108fd565b005b34801561026e57600080fd5b5061028960048036038101906102849190612d4e565b61095d565b60405161029d9897969594939291906135af565b60405180910390f35b3480156102b257600080fd5b506102cd60048036038101906102c89190612ccf565b610b8a565b005b3480156102db57600080fd5b506102f660048036038101906102f19190612afa565b610f7e565b005b610312600480360381019061030d9190612d4e565b610f9e565b005b34801561032057600080fd5b50610329611239565b604051610336919061352d565b60405180910390f35b34801561034b57600080fd5b5061036660048036038101906103619190612d4e565b61123f565b60405161037391906131c5565b60405180910390f35b34801561038857600080fd5b506103a3600480360381019061039e9190612a95565b6112f1565b6040516103b0919061352d565b60405180910390f35b3480156103c557600080fd5b506103ce6113a9565b005b3480156103dc57600080fd5b506103e5611431565b6040516103f291906131c5565b60405180910390f35b34801561040757600080fd5b50610422600480360381019061041d9190612c8e565b61145b565b005b34801561043057600080fd5b506104396114b2565b604051610446919061328b565b60405180910390f35b34801561045b57600080fd5b5061047660048036038101906104719190612a95565b611544565b005b34801561048457600080fd5b5061049f600480360381019061049a9190612bc4565b611604565b005b3480156104ad57600080fd5b506104c860048036038101906104c39190612a95565b61161a565b005b3480156104d657600080fd5b506104f160048036038101906104ec9190612b49565b6116da565b005b3480156104ff57600080fd5b5061050861173c565b60405161051591906131e0565b60405180910390f35b34801561052a57600080fd5b5061054560048036038101906105409190612d4e565b611762565b604051610552919061328b565b60405180910390f35b34801561056757600080fd5b50610570611774565b60405161057d919061352d565b60405180910390f35b34801561059257600080fd5b506105ad60048036038101906105a89190612abe565b61177a565b6040516105ba9190613270565b60405180910390f35b3480156105cf57600080fd5b506105ea60048036038101906105e59190612a95565b61180e565b005b60007f80ac58cd000000000000000000000000000000000000000000000000000000007bffffffffffffffffffffffffffffffffffffffffffffffffffffffff1916827bffffffffffffffffffffffffffffffffffffffffffffffffffffffff191614806106b757507f5b5e139f000000000000000000000000000000000000000000000000000000007bffffffffffffffffffffffffffffffffffffffffffffffffffffffff1916827bffffffffffffffffffffffffffffffffffffffffffffffffffffffff1916145b806106c757506106c682611906565b5b9050919050565b6060600080546106dd906138b6565b80601f0160208091040260200160405190810160405280929190818152602001828054610709906138b6565b80156107565780601f1061072b57610100808354040283529160200191610756565b820191906000526020600020905b81548152906001019060200180831161073957829003601f168201915b5050505050905090565b600061076b82611970565b6107aa576040517f08c379a00000000000000000000000000000000000000000000000000000000081526004016107a19061346d565b60405180910390fd5b6004600083815260200190815260200160002060009054906101000a900473ffffffffffffffffffffffffffffffffffffffff169050919050565b60006107f08261123f565b90508073ffffffffffffffffffffffffffffffffffffffff168373ffffffffffffffffffffffffffffffffffffffff161415610861576040517f08c379a0000000000000000000000000000000000000000000000000000000008152600401610858906134cd565b60405180910390fd5b8073ffffffffffffffffffffffffffffffffffffffff166108806119dc565b73ffffffffffffffffffffffffffffffffffffffff1614806108af57506108ae816108a96119dc565b61177a565b5b6108ee576040517f08c379a00000000000000000000000000000000000000000000000000000000081526004016108e5906133ad565b60405180910390fd5b6108f883836119e4565b505050565b61090e6109086119dc565b82611a9d565b61094d576040517f08c379a00000000000000000000000000000000000000000000000000000000081526004016109449061350d565b60405180910390fd5b610958838383611b7b565b505050565b600d6020528060005260406000206000915090508060000154908060010154908060020160009054906101000a900460ff169080600301805461099f906138b6565b80601f01602080910402602001604051908101604052809291908181526020018280546109cb906138b6565b8015610a185780601f106109ed57610100808354040283529160200191610a18565b820191906000526020600020905b8154815290600101906020018083116109fb57829003601f168201915b505050505090806004018054610a2d906138b6565b80601f0160208091040260200160405190810160405280929190818152602001828054610a59906138b6565b8015610aa65780601f10610a7b57610100808354040283529160200191610aa6565b820191906000526020600020905b815481529060010190602001808311610a8957829003601f168201915b505050505090806005018054610abb906138b6565b80601f0160208091040260200160405190810160405280929190818152602001828054610ae7906138b6565b8015610b345780601f10610b0957610100808354040283529160200191610b34565b820191906000526020600020905b815481529060010190602001808311610b1757829003601f168201915b5050505050908060060160009054906101000a900473ffffffffffffffffffffffffffffffffffffffff16908060070160009054906101000a900473ffffffffffffffffffffffffffffffffffffffff16905088565b60008351118015610b9c575060008251115b610bdb576040517f08c379a0000000000000000000000000000000000000000000000000000000008152600401610bd29061330d565b60405180910390fd5b600a6000815480929190610bee90613919565b9190505550604051806101000160405280600a548152602001828152602001600115158152602001848152602001838152602001600960003373ffffffffffffffffffffffffffffffffffffffff1673ffffffffffffffffffffffffffffffffffffffff1681526020019081526020016000208054610c6c906138b6565b80601f0160208091040260200160405190810160405280929190818152602001828054610c98906138b6565b8015610ce55780601f10610cba57610100808354040283529160200191610ce5565b820191906000526020600020905b815481529060010190602001808311610cc857829003601f168201915b505050505081526020013373ffffffffffffffffffffffffffffffffffffffff1681526020013373ffffffffffffffffffffffffffffffffffffffff16815250600d6000600a548152602001908152602001600020600082015181600001556020820151816001015560408201518160020160006101000a81548160ff0219169083151502179055506060820151816003019080519060200190610d8a9291906128b9565b506080820151816004019080519060200190610da79291906128b9565b5060a0820151816005019080519060200190610dc49291906128b9565b5060c08201518160060160006101000a81548173ffffffffffffffffffffffffffffffffffffffff021916908373ffffffffffffffffffffffffffffffffffffffff16021790555060e08201518160070160006101000a81548173ffffffffffffffffffffffffffffffffffffffff021916908373ffffffffffffffffffffffffffffffffffffffff160217905550905050600860009054906101000a900473ffffffffffffffffffffffffffffffffffffffff1673ffffffffffffffffffffffffffffffffffffffff166340c10f1933670de0b6b3a76400006040518363ffffffff1660e01b8152600401610ebb929190613247565b600060405180830381600087803b158015610ed557600080fd5b505af1158015610ee9573d6000803e3d6000fd5b505050507f46105344ed3331765044bf4b72ec3e7a557e442f12f5ca07855f406b15eb7944600a54600d6000600a548152602001908152602001600020600301600d6000600a54815260200190815260200160002060070160009054906101000a900473ffffffffffffffffffffffffffffffffffffffff16604051610f7193929190613571565b60405180910390a1505050565b610f99838383604051806020016040528060008152506116da565b505050565b80600081118015610fb15750600a548111155b610fba57600080fd5b600d600083815260200190815260200160002060010154341015611013576040517f08c379a000000000000000000000000000000000000000000000000000000000815260040161100a906134ed565b60405180910390fd5b600c60009054906101000a900473ffffffffffffffffffffffffffffffffffffffff1673ffffffffffffffffffffffffffffffffffffffff166108fc349081150290604051600060405180830381858888f1935050505015801561107b573d6000803e3d6000fd5b5034600b5461108a9190613721565b600b8190555061109a3383611de2565b61114282600d600085815260200190815260200160002060040180546110bf906138b6565b80601f01602080910402602001604051908101604052809291908181526020018280546110eb906138b6565b80156111385780601f1061110d57610100808354040283529160200191611138565b820191906000526020600020905b81548152906001019060200180831161111b57829003601f168201915b5050505050611e00565b33600d600084815260200190815260200160002060070160006101000a81548173ffffffffffffffffffffffffffffffffffffffff021916908373ffffffffffffffffffffffffffffffffffffffff1602179055506000600d600084815260200190815260200160002060020160006101000a81548160ff0219169083151502179055507f70f76b66a3d3b6796ada4c4cdb638e4fbe98b25d239c2c6f6c9c463da2d37cef82600d600085815260200190815260200160002060070160009054906101000a900473ffffffffffffffffffffffffffffffffffffffff1660405161122d929190613548565b60405180910390a15050565b600a5481565b6000806002600084815260200190815260200160002060009054906101000a900473ffffffffffffffffffffffffffffffffffffffff169050600073ffffffffffffffffffffffffffffffffffffffff168173ffffffffffffffffffffffffffffffffffffffff1614156112e8576040517f08c379a00000000000000000000000000000000000000000000000000000000081526004016112df906133ed565b60405180910390fd5b80915050919050565b60008073ffffffffffffffffffffffffffffffffffffffff168273ffffffffffffffffffffffffffffffffffffffff161415611362576040517f08c379a0000000000000000000000000000000000000000000000000000000008152600401611359906133cd565b60405180910390fd5b600360008373ffffffffffffffffffffffffffffffffffffffff1673ffffffffffffffffffffffffffffffffffffffff168152602001908152602001600020549050919050565b6113b16119dc565b73ffffffffffffffffffffffffffffffffffffffff166113cf611431565b73ffffffffffffffffffffffffffffffffffffffff1614611425576040517f08c379a000000000000000000000000000000000000000000000000000000000815260040161141c9061348d565b60405180910390fd5b61142f6000611e74565b565b6000600760009054906101000a900473ffffffffffffffffffffffffffffffffffffffff16905090565b80600960003373ffffffffffffffffffffffffffffffffffffffff1673ffffffffffffffffffffffffffffffffffffffff16815260200190815260200160002090805190602001906114ae9291906128b9565b5050565b6060600180546114c1906138b6565b80601f01602080910402602001604051908101604052809291908181526020018280546114ed906138b6565b801561153a5780601f1061150f5761010080835404028352916020019161153a565b820191906000526020600020905b81548152906001019060200180831161151d57829003601f168201915b5050505050905090565b61154c6119dc565b73ffffffffffffffffffffffffffffffffffffffff1661156a611431565b73ffffffffffffffffffffffffffffffffffffffff16146115c0576040517f08c379a00000000000000000000000000000000000000000000000000000000081526004016115b79061348d565b60405180910390fd5b80600860006101000a81548173ffffffffffffffffffffffffffffffffffffffff021916908373ffffffffffffffffffffffffffffffffffffffff16021790555050565b61161661160f6119dc565b8383611f3a565b5050565b6116226119dc565b73ffffffffffffffffffffffffffffffffffffffff16611640611431565b73ffffffffffffffffffffffffffffffffffffffff1614611696576040517f08c379a000000000000000000000000000000000000000000000000000000000815260040161168d9061348d565b60405180910390fd5b80600c60006101000a81548173ffffffffffffffffffffffffffffffffffffffff021916908373ffffffffffffffffffffffffffffffffffffffff16021790555050565b6116eb6116e56119dc565b83611a9d565b61172a576040517f08c379a00000000000000000000000000000000000000000000000000000000081526004016117219061350d565b60405180910390fd5b611736848484846120a7565b50505050565b600c60009054906101000a900473ffffffffffffffffffffffffffffffffffffffff1681565b606061176d82612103565b9050919050565b600b5481565b6000600560008473ffffffffffffffffffffffffffffffffffffffff1673ffffffffffffffffffffffffffffffffffffffff16815260200190815260200160002060008373ffffffffffffffffffffffffffffffffffffffff1673ffffffffffffffffffffffffffffffffffffffff16815260200190815260200160002060009054906101000a900460ff16905092915050565b6118166119dc565b73ffffffffffffffffffffffffffffffffffffffff16611834611431565b73ffffffffffffffffffffffffffffffffffffffff161461188a576040517f08c379a00000000000000000000000000000000000000000000000000000000081526004016118819061348d565b60405180910390fd5b600073ffffffffffffffffffffffffffffffffffffffff168173ffffffffffffffffffffffffffffffffffffffff1614156118fa576040517f08c379a00000000000000000000000000000000000000000000000000000000081526004016118f1906132cd565b60405180910390fd5b61190381611e74565b50565b60007f01ffc9a7000000000000000000000000000000000000000000000000000000007bffffffffffffffffffffffffffffffffffffffffffffffffffffffff1916827bffffffffffffffffffffffffffffffffffffffffffffffffffffffff1916149050919050565b60008073ffffffffffffffffffffffffffffffffffffffff166002600084815260200190815260200160002060009054906101000a900473ffffffffffffffffffffffffffffffffffffffff1673ffffffffffffffffffffffffffffffffffffffff1614159050919050565b600033905090565b816004600083815260200190815260200160002060006101000a81548173ffffffffffffffffffffffffffffffffffffffff021916908373ffffffffffffffffffffffffffffffffffffffff160217905550808273ffffffffffffffffffffffffffffffffffffffff16611a578361123f565b73ffffffffffffffffffffffffffffffffffffffff167f8c5be1e5ebec7d5bd14f71427d1e84f3dd0314c0f7b2291e5b200ac8c7c3b92560405160405180910390a45050565b6000611aa882611970565b611ae7576040517f08c379a0000000000000000000000000000000000000000000000000000000008152600401611ade9061338d565b60405180910390fd5b6000611af28361123f565b90508073ffffffffffffffffffffffffffffffffffffffff168473ffffffffffffffffffffffffffffffffffffffff161480611b345750611b33818561177a565b5b80611b7257508373ffffffffffffffffffffffffffffffffffffffff16611b5a84610760565b73ffffffffffffffffffffffffffffffffffffffff16145b91505092915050565b8273ffffffffffffffffffffffffffffffffffffffff16611b9b8261123f565b73ffffffffffffffffffffffffffffffffffffffff1614611bf1576040517f08c379a0000000000000000000000000000000000000000000000000000000008152600401611be8906132ed565b60405180910390fd5b600073ffffffffffffffffffffffffffffffffffffffff168273ffffffffffffffffffffffffffffffffffffffff161415611c61576040517f08c379a0000000000000000000000000000000000000000000000000000000008152600401611c589061334d565b60405180910390fd5b611c6c838383612255565b611c776000826119e4565b6001600360008573ffffffffffffffffffffffffffffffffffffffff1673ffffffffffffffffffffffffffffffffffffffff1681526020019081526020016000206000828254611cc791906137a8565b925050819055506001600360008473ffffffffffffffffffffffffffffffffffffffff1673ffffffffffffffffffffffffffffffffffffffff1681526020019081526020016000206000828254611d1e9190613721565b92505081905550816002600083815260200190815260200160002060006101000a81548173ffffffffffffffffffffffffffffffffffffffff021916908373ffffffffffffffffffffffffffffffffffffffff160217905550808273ffffffffffffffffffffffffffffffffffffffff168473ffffffffffffffffffffffffffffffffffffffff167fddf252ad1be2c89b69c2b068fc378daa952ba7f163c4a11628f55a4df523b3ef60405160405180910390a4611ddd83838361225a565b505050565b611dfc82826040518060200160405280600081525061225f565b5050565b611e0982611970565b611e48576040517f08c379a0000000000000000000000000000000000000000000000000000000008152600401611e3f9061340d565b60405180910390fd5b80600660008481526020019081526020016000209080519060200190611e6f9291906128b9565b505050565b6000600760009054906101000a900473ffffffffffffffffffffffffffffffffffffffff16905081600760006101000a81548173ffffffffffffffffffffffffffffffffffffffff021916908373ffffffffffffffffffffffffffffffffffffffff1602179055508173ffffffffffffffffffffffffffffffffffffffff168173ffffffffffffffffffffffffffffffffffffffff167f8be0079c531659141344cd1fd0a4f28419497f9722a3daafe3b4186f6b6457e060405160405180910390a35050565b8173ffffffffffffffffffffffffffffffffffffffff168373ffffffffffffffffffffffffffffffffffffffff161415611fa9576040517f08c379a0000000000000000000000000000000000000000000000000000000008152600401611fa09061336d565b60405180910390fd5b80600560008573ffffffffffffffffffffffffffffffffffffffff1673ffffffffffffffffffffffffffffffffffffffff16815260200190815260200160002060008473ffffffffffffffffffffffffffffffffffffffff1673ffffffffffffffffffffffffffffffffffffffff16815260200190815260200160002060006101000a81548160ff0219169083151502179055508173ffffffffffffffffffffffffffffffffffffffff168373ffffffffffffffffffffffffffffffffffffffff167f17307eab39ab6107e8899845ad3d59bd9653f200f220920489ca2b5937696c318360405161209a9190613270565b60405180910390a3505050565b6120b2848484611b7b565b6120be848484846122ba565b6120fd576040517f08c379a00000000000000000000000000000000000000000000000000000000081526004016120f4906132ad565b60405180910390fd5b50505050565b606061210e82611970565b61214d576040517f08c379a00000000000000000000000000000000000000000000000000000000081526004016121449061344d565b60405180910390fd5b600060066000848152602001908152602001600020805461216d906138b6565b80601f0160208091040260200160405190810160405280929190818152602001828054612199906138b6565b80156121e65780601f106121bb576101008083540402835291602001916121e6565b820191906000526020600020905b8154815290600101906020018083116121c957829003601f168201915b5050505050905060006121f7612451565b905060008151141561220d578192505050612250565b60008251111561224257808260405160200161222a9291906131a1565b60405160208183030381529060405292505050612250565b61224b84612468565b925050505b919050565b505050565b505050565b612269838361250f565b61227660008484846122ba565b6122b5576040517f08c379a00000000000000000000000000000000000000000000000000000000081526004016122ac906132ad565b60405180910390fd5b505050565b60006122db8473ffffffffffffffffffffffffffffffffffffffff166126e9565b15612444578373ffffffffffffffffffffffffffffffffffffffff1663150b7a026123046119dc565b8786866040518563ffffffff1660e01b815260040161232694939291906131fb565b602060405180830381600087803b15801561234057600080fd5b505af192505050801561237157506040513d601f19601f8201168201806040525081019061236e9190612c65565b60015b6123f4573d80600081146123a1576040519150601f19603f3d011682016040523d82523d6000602084013e6123a6565b606091505b506000815114156123ec576040517f08c379a00000000000000000000000000000000000000000000000000000000081526004016123e3906132ad565b60405180910390fd5b805181602001fd5b63150b7a0260e01b7bffffffffffffffffffffffffffffffffffffffffffffffffffffffff1916817bffffffffffffffffffffffffffffffffffffffffffffffffffffffff191614915050612449565b600190505b949350505050565b606060405180602001604052806000815250905090565b606061247382611970565b6124b2576040517f08c379a00000000000000000000000000000000000000000000000000000000081526004016124a9906134ad565b60405180910390fd5b60006124bc612451565b905060008151116124dc5760405180602001604052806000815250612507565b806124e68461270c565b6040516020016124f79291906131a1565b6040516020818303038152906040525b915050919050565b600073ffffffffffffffffffffffffffffffffffffffff168273ffffffffffffffffffffffffffffffffffffffff16141561257f576040517f08c379a00000000000000000000000000000000000000000000000000000000081526004016125769061342d565b60405180910390fd5b61258881611970565b156125c8576040517f08c379a00000000000000000000000000000000000000000000000000000000081526004016125bf9061332d565b60405180910390fd5b6125d460008383612255565b6001600360008473ffffffffffffffffffffffffffffffffffffffff1673ffffffffffffffffffffffffffffffffffffffff16815260200190815260200160002060008282546126249190613721565b92505081905550816002600083815260200190815260200160002060006101000a81548173ffffffffffffffffffffffffffffffffffffffff021916908373ffffffffffffffffffffffffffffffffffffffff160217905550808273ffffffffffffffffffffffffffffffffffffffff16600073ffffffffffffffffffffffffffffffffffffffff167fddf252ad1be2c89b69c2b068fc378daa952ba7f163c4a11628f55a4df523b3ef60405160405180910390a46126e56000838361225a565b5050565b6000808273ffffffffffffffffffffffffffffffffffffffff163b119050919050565b60606000821415612754576040518060400160405280600181526020017f300000000000000000000000000000000000000000000000000000000000000081525090506128b4565b600082905060005b6000821461278657808061276f90613919565b915050600a8261277f9190613777565b915061275c565b60008167ffffffffffffffff8111156127c8577f4e487b7100000000000000000000000000000000000000000000000000000000600052604160045260246000fd5b6040519080825280601f01601f1916602001820160405280156127fa5781602001600182028036833780820191505090505b5090505b600085146128ad5760018261281391906137a8565b9150600a856128229190613962565b603061282e9190613721565b60f81b81838151811061286a577f4e487b7100000000000000000000000000000000000000000000000000000000600052603260045260246000fd5b60200101907effffffffffffffffffffffffffffffffffffffffffffffffffffffffffffff1916908160001a905350600a856128a69190613777565b94506127fe565b8093505050505b919050565b8280546128c5906138b6565b90600052602060002090601f0160209004810192826128e7576000855561292e565b82601f1061290057805160ff191683800117855561292e565b8280016001018555821561292e579182015b8281111561292d578251825591602001919060010190612912565b5b50905061293b919061293f565b5090565b5b80821115612958576000816000905550600101612940565b5090565b600061296f61296a84613667565b613642565b90508281526020810184848401111561298757600080fd5b612992848285613874565b509392505050565b60006129ad6129a884613698565b613642565b9050828152602081018484840111156129c557600080fd5b6129d0848285613874565b509392505050565b6000813590506129e781613fa8565b92915050565b6000813590506129fc81613fbf565b92915050565b600081359050612a1181613fd6565b92915050565b600081519050612a2681613fd6565b92915050565b600082601f830112612a3d57600080fd5b8135612a4d84826020860161295c565b91505092915050565b600082601f830112612a6757600080fd5b8135612a7784826020860161299a565b91505092915050565b600081359050612a8f81613fed565b92915050565b600060208284031215612aa757600080fd5b6000612ab5848285016129d8565b91505092915050565b60008060408385031215612ad157600080fd5b6000612adf858286016129d8565b9250506020612af0858286016129d8565b9150509250929050565b600080600060608486031215612b0f57600080fd5b6000612b1d868287016129d8565b9350506020612b2e868287016129d8565b9250506040612b3f86828701612a80565b9150509250925092565b60008060008060808587031215612b5f57600080fd5b6000612b6d878288016129d8565b9450506020612b7e878288016129d8565b9350506040612b8f87828801612a80565b925050606085013567ffffffffffffffff811115612bac57600080fd5b612bb887828801612a2c565b91505092959194509250565b60008060408385031215612bd757600080fd5b6000612be5858286016129d8565b9250506020612bf6858286016129ed565b9150509250929050565b60008060408385031215612c1357600080fd5b6000612c21858286016129d8565b9250506020612c3285828601612a80565b9150509250929050565b600060208284031215612c4e57600080fd5b6000612c5c84828501612a02565b91505092915050565b600060208284031215612c7757600080fd5b6000612c8584828501612a17565b91505092915050565b600060208284031215612ca057600080fd5b600082013567ffffffffffffffff811115612cba57600080fd5b612cc684828501612a56565b91505092915050565b600080600060608486031215612ce457600080fd5b600084013567ffffffffffffffff811115612cfe57600080fd5b612d0a86828701612a56565b935050602084013567ffffffffffffffff811115612d2757600080fd5b612d3386828701612a56565b9250506040612d4486828701612a80565b9150509250925092565b600060208284031215612d6057600080fd5b6000612d6e84828501612a80565b91505092915050565b612d80816137ee565b82525050565b612d8f816137dc565b82525050565b612d9e81613800565b82525050565b6000612daf826136de565b612db981856136f4565b9350612dc9818560208601613883565b612dd281613a4f565b840191505092915050565b612de681613862565b82525050565b6000612df7826136e9565b612e018185613705565b9350612e11818560208601613883565b612e1a81613a4f565b840191505092915050565b6000612e30826136e9565b612e3a8185613716565b9350612e4a818560208601613883565b80840191505092915050565b60008154612e63816138b6565b612e6d8186613705565b94506001821660008114612e885760018114612e9a57612ecd565b60ff1983168652602086019350612ecd565b612ea3856136c9565b60005b83811015612ec557815481890152600182019150602081019050612ea6565b808801955050505b50505092915050565b6000612ee3603283613705565b9150612eee82613a60565b604082019050919050565b6000612f06602683613705565b9150612f1182613aaf565b604082019050919050565b6000612f29602583613705565b9150612f3482613afe565b604082019050919050565b6000612f4c601683613705565b9150612f5782613b4d565b602082019050919050565b6000612f6f601c83613705565b9150612f7a82613b76565b602082019050919050565b6000612f92602483613705565b9150612f9d82613b9f565b604082019050919050565b6000612fb5601983613705565b9150612fc082613bee565b602082019050919050565b6000612fd8602c83613705565b9150612fe382613c17565b604082019050919050565b6000612ffb603883613705565b915061300682613c66565b604082019050919050565b600061301e602a83613705565b915061302982613cb5565b604082019050919050565b6000613041602983613705565b915061304c82613d04565b604082019050919050565b6000613064602e83613705565b915061306f82613d53565b604082019050919050565b6000613087602083613705565b915061309282613da2565b602082019050919050565b60006130aa603183613705565b91506130b582613dcb565b604082019050919050565b60006130cd602c83613705565b91506130d882613e1a565b604082019050919050565b60006130f0602083613705565b91506130fb82613e69565b602082019050919050565b6000613113602f83613705565b915061311e82613e92565b604082019050919050565b6000613136602183613705565b915061314182613ee1565b604082019050919050565b6000613159601383613705565b915061316482613f30565b602082019050919050565b600061317c603183613705565b915061318782613f59565b604082019050919050565b61319b81613858565b82525050565b60006131ad8285612e25565b91506131b98284612e25565b91508190509392505050565b60006020820190506131da6000830184612d86565b92915050565b60006020820190506131f56000830184612d77565b92915050565b60006080820190506132106000830187612d86565b61321d6020830186612d86565b61322a6040830185613192565b818103606083015261323c8184612da4565b905095945050505050565b600060408201905061325c6000830185612d86565b6132696020830184612ddd565b9392505050565b60006020820190506132856000830184612d95565b92915050565b600060208201905081810360008301526132a58184612dec565b905092915050565b600060208201905081810360008301526132c681612ed6565b9050919050565b600060208201905081810360008301526132e681612ef9565b9050919050565b6000602082019050818103600083015261330681612f1c565b9050919050565b6000602082019050818103600083015261332681612f3f565b9050919050565b6000602082019050818103600083015261334681612f62565b9050919050565b6000602082019050818103600083015261336681612f85565b9050919050565b6000602082019050818103600083015261338681612fa8565b9050919050565b600060208201905081810360008301526133a681612fcb565b9050919050565b600060208201905081810360008301526133c681612fee565b9050919050565b600060208201905081810360008301526133e681613011565b9050919050565b6000602082019050818103600083015261340681613034565b9050919050565b6000602082019050818103600083015261342681613057565b9050919050565b600060208201905081810360008301526134468161307a565b9050919050565b600060208201905081810360008301526134668161309d565b9050919050565b60006020820190508181036000830152613486816130c0565b9050919050565b600060208201905081810360008301526134a6816130e3565b9050919050565b600060208201905081810360008301526134c681613106565b9050919050565b600060208201905081810360008301526134e681613129565b9050919050565b600060208201905081810360008301526135068161314c565b9050919050565b600060208201905081810360008301526135268161316f565b9050919050565b60006020820190506135426000830184613192565b92915050565b600060408201905061355d6000830185613192565b61356a6020830184612d86565b9392505050565b60006060820190506135866000830186613192565b81810360208301526135988185612e56565b90506135a76040830184612d86565b949350505050565b6000610100820190506135c5600083018b613192565b6135d2602083018a613192565b6135df6040830189612d95565b81810360608301526135f18188612dec565b905081810360808301526136058187612dec565b905081810360a08301526136198186612dec565b905061362860c0830185612d86565b61363560e0830184612d86565b9998505050505050505050565b600061364c61365d565b905061365882826138e8565b919050565b6000604051905090565b600067ffffffffffffffff82111561368257613681613a20565b5b61368b82613a4f565b9050602081019050919050565b600067ffffffffffffffff8211156136b3576136b2613a20565b5b6136bc82613a4f565b9050602081019050919050565b60008190508160005260206000209050919050565b600081519050919050565b600081519050919050565b600082825260208201905092915050565b600082825260208201905092915050565b600081905092915050565b600061372c82613858565b915061373783613858565b9250827fffffffffffffffffffffffffffffffffffffffffffffffffffffffffffffffff0382111561376c5761376b613993565b5b828201905092915050565b600061378282613858565b915061378d83613858565b92508261379d5761379c6139c2565b5b828204905092915050565b60006137b382613858565b91506137be83613858565b9250828210156137d1576137d0613993565b5b828203905092915050565b60006137e782613838565b9050919050565b60006137f982613838565b9050919050565b60008115159050919050565b60007fffffffff0000000000000000000000000000000000000000000000000000000082169050919050565b600073ffffffffffffffffffffffffffffffffffffffff82169050919050565b6000819050919050565b600061386d82613858565b9050919050565b82818337600083830152505050565b60005b838110156138a1578082015181840152602081019050613886565b838111156138b0576000848401525b50505050565b600060028204905060018216806138ce57607f821691505b602082108114156138e2576138e16139f1565b5b50919050565b6138f182613a4f565b810181811067ffffffffffffffff821117156139105761390f613a20565b5b80604052505050565b600061392482613858565b91507fffffffffffffffffffffffffffffffffffffffffffffffffffffffffffffffff82141561395757613956613993565b5b600182019050919050565b600061396d82613858565b915061397883613858565b925082613988576139876139c2565b5b828206905092915050565b7f4e487b7100000000000000000000000000000000000000000000000000000000600052601160045260246000fd5b7f4e487b7100000000000000000000000000000000000000000000000000000000600052601260045260246000fd5b7f4e487b7100000000000000000000000000000000000000000000000000000000600052602260045260246000fd5b7f4e487b7100000000000000000000000000000000000000000000000000000000600052604160045260246000fd5b6000601f19601f8301169050919050565b7f4552433732313a207472616e7366657220746f206e6f6e20455243373231526560008201527f63656976657220696d706c656d656e7465720000000000000000000000000000602082015250565b7f4f776e61626c653a206e6577206f776e657220697320746865207a65726f206160008201527f6464726573730000000000000000000000000000000000000000000000000000602082015250565b7f4552433732313a207472616e736665722066726f6d20696e636f72726563742060008201527f6f776e6572000000000000000000000000000000000000000000000000000000602082015250565b7f4e616d6520616e642066696c6520726571756972656400000000000000000000600082015250565b7f4552433732313a20746f6b656e20616c7265616479206d696e74656400000000600082015250565b7f4552433732313a207472616e7366657220746f20746865207a65726f2061646460008201527f7265737300000000000000000000000000000000000000000000000000000000602082015250565b7f4552433732313a20617070726f766520746f2063616c6c657200000000000000600082015250565b7f4552433732313a206f70657261746f7220717565727920666f72206e6f6e657860008201527f697374656e7420746f6b656e0000000000000000000000000000000000000000602082015250565b7f4552433732313a20617070726f76652063616c6c6572206973206e6f74206f7760008201527f6e6572206e6f7220617070726f76656420666f7220616c6c0000000000000000602082015250565b7f4552433732313a2062616c616e636520717565727920666f7220746865207a6560008201527f726f206164647265737300000000000000000000000000000000000000000000602082015250565b7f4552433732313a206f776e657220717565727920666f72206e6f6e657869737460008201527f656e7420746f6b656e0000000000000000000000000000000000000000000000602082015250565b7f45524337323155524953746f726167653a2055524920736574206f66206e6f6e60008201527f6578697374656e7420746f6b656e000000000000000000000000000000000000602082015250565b7f4552433732313a206d696e7420746f20746865207a65726f2061646472657373600082015250565b7f45524337323155524953746f726167653a2055524920717565727920666f722060008201527f6e6f6e6578697374656e7420746f6b656e000000000000000000000000000000602082015250565b7f4552433732313a20617070726f76656420717565727920666f72206e6f6e657860008201527f697374656e7420746f6b656e0000000000000000000000000000000000000000602082015250565b7f4f776e61626c653a2063616c6c6572206973206e6f7420746865206f776e6572600082015250565b7f4552433732314d657461646174613a2055524920717565727920666f72206e6f60008201527f6e6578697374656e7420746f6b656e0000000000000000000000000000000000602082015250565b7f4552433732313a20617070726f76616c20746f2063757272656e74206f776e6560008201527f7200000000000000000000000000000000000000000000000000000000000000602082015250565b7f496e73756666696369656e7420616d6f756e7400000000000000000000000000600082015250565b7f4552433732313a207472616e736665722063616c6c6572206973206e6f74206f60008201527f776e6572206e6f7220617070726f766564000000000000000000000000000000602082015250565b613fb1816137dc565b8114613fbc57600080fd5b50565b613fc881613800565b8114613fd357600080fd5b50565b613fdf8161380c565b8114613fea57600080fd5b50565b613ff681613858565b811461400157600080fd5b5056fea2646970667358221220680bd6d5662f7e199327364af017c60f3c997e728aa229d08fc9c23ad0876a5964736f6c63430008020033",
  "immutableReferences": {},
  "source": "// SPDX-License-Identifier: MIT\npragma solidity ^0.8.0;\n\nimport \"@openzeppelin/contracts/access/Ownable.sol\";\nimport \"@openzeppelin/contracts/token/ERC721/ERC721.sol\";\nimport \"@openzeppelin/contracts/token/ERC721/extensions/ERC721URIStorage.sol\";\n\ninterface IGCToken {\n  function mint(address to, uint256 amount) external;\n}\n\ncontract GoodwillChainMain is ERC721, ERC721URIStorage, Ownable {\n\n  address gctAddress;\n  mapping(address => string) artists;\n\n  uint public tCount;\n  uint public funds;\n  address payable public org_address;\n\n  mapping(uint => NFT) public nfts;\n\n  struct NFT {\n    uint id;\n    uint price;\n    bool isListed;\n    string name;\n    string filecid;\n    string aName;\n    address artist;\n    address owner;\n  }\n\n  constructor() ERC721(\"GoodwillChain NFT\", \"GWC\") { }\n\n  modifier idExists(uint id) {\n    require(id > 0 && id <= tCount);\n    _;\n  }\n\n  event createdNFT(\n    uint id,\n    string name,\n    address owner\n  );\n\n  event setNFTPrice(\n    uint id,\n    uint newPrice,\n    bool listed\n  );\n\n  event offerApproved(\n    uint id,\n    uint nftID,\n    uint amount,\n    bool approved\n  );\n\n  event boughtNFT(\n    uint id,\n    address buyer\n  );\n\n  function _burn(uint256 tokenId) internal override(ERC721, ERC721URIStorage) {\n      super._burn(tokenId);\n  }\n\n  function tokenURI(uint256 tokenId)\n      public\n      view\n      override(ERC721, ERC721URIStorage)\n      returns (string memory)\n  {\n      return super.tokenURI(tokenId);\n  }\n\n  function setGCTAddress(address _gctAddress) external onlyOwner {\n    gctAddress = _gctAddress;\n  }\n\n  function setOrgAddress(address _org_address) external onlyOwner {\n    org_address = payable(_org_address);\n  }\n\n  function registerArtist(string memory _name) external {\n    artists[msg.sender] = _name;\n  }\n\n  function createNFT(string memory _name, string memory _filecid, uint256 _price) external {\n    require(bytes(_name).length > 0 && bytes(_filecid).length > 0, \"Name and file required\");\n    tCount++;\n    nfts[tCount] = NFT(tCount, _price, true, _name, _filecid, artists[msg.sender], msg.sender, msg.sender);\n    IGCToken(gctAddress).mint(msg.sender, 1 ether);\n    emit createdNFT(tCount, nfts[tCount].name, nfts[tCount].owner);\n  }\n\n  function buyNFT(uint _id) external payable idExists(_id) {\n    require(msg.value >= nfts[_id].price, \"Insufficient amount\");\n    org_address.transfer(msg.value);\n    funds = funds + msg.value;\n    _safeMint(msg.sender, _id);\n    _setTokenURI(_id, nfts[_id].filecid);\n    nfts[_id].owner = msg.sender;\n    nfts[_id].isListed = false;\n    emit boughtNFT(_id, nfts[_id].owner);\n  }\n}\n",
  "sourcePath": "E:\\WebDEV\\hackathons\\Bits_WEB_3\\Goodwill-Chain-main\\Goodwill-Chain-main\\contracts\\GoodwillChainMain.sol",
  "compiler": {
    "name": "solc",
    "version": "0.8.2+commit.661d1103.Emscripten.clang"
  },
  "schemaVersion": "3.4.5",
  "updatedAt": "2022-06-12T21:33:27.366Z",
  "devdoc": {
    "kind": "dev",
    "methods": {
      "approve(address,uint256)": {
        "details": "See {IERC721-approve}."
      },
      "balanceOf(address)": {
        "details": "See {IERC721-balanceOf}."
      },
      "getApproved(uint256)": {
        "details": "See {IERC721-getApproved}."
      },
      "isApprovedForAll(address,address)": {
        "details": "See {IERC721-isApprovedForAll}."
      },
      "name()": {
        "details": "See {IERC721Metadata-name}."
      },
      "owner()": {
        "details": "Returns the address of the current owner."
      },
      "ownerOf(uint256)": {
        "details": "See {IERC721-ownerOf}."
      },
      "renounceOwnership()": {
        "details": "Leaves the contract without owner. It will not be possible to call `onlyOwner` functions anymore. Can only be called by the current owner. NOTE: Renouncing ownership will leave the contract without an owner, thereby removing any functionality that is only available to the owner."
      },
      "safeTransferFrom(address,address,uint256)": {
        "details": "See {IERC721-safeTransferFrom}."
      },
      "safeTransferFrom(address,address,uint256,bytes)": {
        "details": "See {IERC721-safeTransferFrom}."
      },
      "setApprovalForAll(address,bool)": {
        "details": "See {IERC721-setApprovalForAll}."
      },
      "supportsInterface(bytes4)": {
        "details": "See {IERC165-supportsInterface}."
      },
      "symbol()": {
        "details": "See {IERC721Metadata-symbol}."
      },
      "transferFrom(address,address,uint256)": {
        "details": "See {IERC721-transferFrom}."
      },
      "transferOwnership(address)": {
        "details": "Transfers ownership of the contract to a new account (`newOwner`). Can only be called by the current owner."
      }
    },
    "version": 1
  },
  "userdoc": {
    "kind": "user",
    "methods": {},
    "version": 1
  }
}